{
  "address": "0x36a9a9782E3950F3279bac8ECba48E2c11983065",
  "abi": [
    {
      "inputs": [],
      "stateMutability": "payable",
      "type": "constructor"
    },
    {
      "inputs": [],
      "name": "NotEnoughEther",
      "type": "error"
    },
    {
      "anonymous": false,
      "inputs": [
        {
          "indexed": true,
          "internalType": "address",
          "name": "player",
          "type": "address"
        },
        {
          "indexed": false,
          "internalType": "uint256",
          "name": "amount",
          "type": "uint256"
        },
        {
          "indexed": false,
          "internalType": "uint256",
          "name": "roll",
          "type": "uint256"
        }
      ],
      "name": "Roll",
      "type": "event"
    },
    {
      "anonymous": false,
      "inputs": [
        {
          "indexed": false,
          "internalType": "address",
          "name": "winner",
          "type": "address"
        },
        {
          "indexed": false,
          "internalType": "uint256",
          "name": "amount",
          "type": "uint256"
        }
      ],
      "name": "Winner",
      "type": "event"
    },
    {
      "inputs": [],
      "name": "nonce",
      "outputs": [
        {
          "internalType": "uint256",
          "name": "",
          "type": "uint256"
        }
      ],
      "stateMutability": "view",
      "type": "function"
    },
    {
      "inputs": [
        {
          "internalType": "address",
          "name": "",
          "type": "address"
        }
      ],
      "name": "playerPaid",
      "outputs": [
        {
          "internalType": "uint256",
          "name": "",
          "type": "uint256"
        }
      ],
      "stateMutability": "view",
      "type": "function"
    },
    {
      "inputs": [
        {
          "internalType": "address",
          "name": "",
          "type": "address"
        }
      ],
      "name": "playerWon",
      "outputs": [
        {
          "internalType": "uint256",
          "name": "",
          "type": "uint256"
        }
      ],
      "stateMutability": "view",
      "type": "function"
    },
    {
      "inputs": [],
      "name": "prize",
      "outputs": [
        {
          "internalType": "uint256",
          "name": "",
          "type": "uint256"
        }
      ],
      "stateMutability": "view",
      "type": "function"
    },
    {
      "inputs": [],
      "name": "rollTheDice",
      "outputs": [],
      "stateMutability": "payable",
      "type": "function"
    },
    {
      "stateMutability": "payable",
      "type": "receive"
    }
  ],
  "transactionHash": "0xb90dfda13d5140d3bbfdafe2c7dde7c6719c8deacaa70237b5bbd6b9a1aaad10",
  "args": [],
  "numDeployments": 1,
  "solcInputHash": "689ba8f683b26ab6b1c7c63eb4309daa",
  "bytecode": "0x60806040526000808055600155610014610019565b610082565b606461002647600a610035565b6100309190610060565b600155565b808202811582820484141761005a57634e487b7160e01b600052601160045260246000fd5b92915050565b60008261007d57634e487b7160e01b600052601260045260246000fd5b500490565b610738806100916000396000f3fe60806040526004361061004e5760003560e01c80637afe48151461005a5780637d789dee14610099578063affed0e0146100a3578063e3ac5d26146100b9578063eca03302146100cf57600080fd5b3661005557005b600080fd5b34801561006657600080fd5b50610087610075366004610568565b60036020526000908152604090205481565b60405190815260200160405180910390f35b6100a16100fc565b005b3480156100af57600080fd5b5061008760005481565b3480156100c557600080fd5b5061008760015481565b3480156100db57600080fd5b506100876100ea366004610568565b60026020526000908152604090205481565b66071afd498d000034101561012457604051638a0d377960e01b815260040160405180910390fd5b60006101316001436105ae565b409050600081306000546040516020016101709392919092835260609190911b6bffffffffffffffffffffffff19166020830152603482015260540190565b60408051601f198184030181529190528051602090910120905060006101976010836105dd565b90506101f5604051806040016040528060018152602001600960f81b8152506040518060400160405280601781526020017f20202050726576696f757320426c6f636b20486173683a0000000000000000008152508560001c61048c565b61023c604051806040016040528060018152602001600960f81b815250604051806040016040528060098152602001681010102737b731b29d60b91b81525060005461048c565b61028c604051806040016040528060018152602001600960f81b8152506040518060400160405280601481526020017310101021b7b73a3930b1ba1020b2323932b9b99d60611b815250306104d8565b6102da604051806040016040528060018152602001600960f81b815250604051806040016040528060128152602001711010102234b1b29023b0b6b2902937b6361d60711b8152508361048c565b6000805490806102e9836105f1565b90915550606490506102fc34602861060a565b6103069190610621565b600160008282546103179190610635565b9091555050336000908152600260205260408120805434929061033b908490610635565b9091555050604080513481526020810183905233917f61cfee61b80d296eb67d23740a2278ba7f3d857fe9aa27f1ed9fe4882e254360910160405180910390a2600581111561038957505050565b600154604051600090339083908381818185875af1925050503d80600081146103ce576040519150601f19603f3d011682016040523d82523d6000602084013e6103d3565b606091505b505090508061041f5760405162461bcd60e51b81526020600482015260146024820152732330b4b632b2103a379039b2b7321022ba3432b960611b604482015260640160405180910390fd5b336000908152600360205260408120805484929061043e908490610635565b9091555061044c905061051f565b60408051338152602081018490527f9c2270628a9b29d30ae96b6c4c14ed646ee134febdce38a5b77f2bde9cea2e20910160405180910390a15050505050565b6104d38383836040516024016104a49392919061068e565b60408051601f198184030181529190526020810180516001600160e01b0316635821efa160e01b17905261053b565b505050565b6104d38383836040516024016104f0939291906106c4565b60408051601f198184030181529190526020810180516001600160e01b03166395ed019560e01b17905261053b565b606461052c47600a61060a565b6105369190610621565b600155565b61054481610547565b50565b60006a636f6e736f6c652e6c6f679050600080835160208501845afa505050565b60006020828403121561057a57600080fd5b81356001600160a01b038116811461059157600080fd5b9392505050565b634e487b7160e01b600052601160045260246000fd5b818103818111156105c1576105c1610598565b92915050565b634e487b7160e01b600052601260045260246000fd5b6000826105ec576105ec6105c7565b500690565b60006001820161060357610603610598565b5060010190565b80820281158282048414176105c1576105c1610598565b600082610630576106306105c7565b500490565b808201808211156105c1576105c1610598565b6000815180845260005b8181101561066e57602081850181015186830182015201610652565b506000602082860101526020601f19601f83011685010191505092915050565b6060815260006106a16060830186610648565b82810360208401526106b38186610648565b915050826040830152949350505050565b6060815260006106d76060830186610648565b82810360208401526106e98186610648565b91505060018060a01b038316604083015294935050505056fea26469706673582212209db12292ba65a672f9aa4d28346a9177784829462e8328783386bad1abe8267764736f6c63430008110033",
  "devdoc": {
    "kind": "dev",
    "methods": {},
    "version": 1
  },
  "userdoc": {
    "kind": "user",
    "methods": {},
    "version": 1
  },
  "storageLayout": {
    "storage": [
      {
        "astId": 140,
        "contract": "contracts/DiceGame.sol:DiceGame",
        "label": "nonce",
        "offset": 0,
        "slot": "0",
        "type": "t_uint256"
      },
      {
        "astId": 143,
        "contract": "contracts/DiceGame.sol:DiceGame",
        "label": "prize",
        "offset": 0,
        "slot": "1",
        "type": "t_uint256"
      },
      {
        "astId": 147,
        "contract": "contracts/DiceGame.sol:DiceGame",
        "label": "playerPaid",
        "offset": 0,
        "slot": "2",
        "type": "t_mapping(t_address,t_uint256)"
      },
      {
        "astId": 151,
        "contract": "contracts/DiceGame.sol:DiceGame",
        "label": "playerWon",
        "offset": 0,
        "slot": "3",
        "type": "t_mapping(t_address,t_uint256)"
      }
    ],
    "types": {
      "t_address": {
        "encoding": "inplace",
        "label": "address",
        "numberOfBytes": "20"
      },
      "t_mapping(t_address,t_uint256)": {
        "encoding": "mapping",
        "key": "t_address",
        "label": "mapping(address => uint256)",
        "numberOfBytes": "32",
        "value": "t_uint256"
      },
      "t_uint256": {
        "encoding": "inplace",
        "label": "uint256",
        "numberOfBytes": "32"
      }
    }
  }
}