{
  "address": "0x407583F926e8A1b34161Fb706c1F720E7169D6E8",
  "abi": [
    {
      "inputs": [
        {
          "internalType": "address payable",
          "name": "diceGameAddress",
          "type": "address"
        }
      ],
      "stateMutability": "nonpayable",
      "type": "constructor"
    },
    {
      "anonymous": false,
      "inputs": [
        {
          "indexed": true,
          "internalType": "address",
          "name": "depositor",
          "type": "address"
        },
        {
          "indexed": false,
          "internalType": "uint256",
          "name": "amount",
          "type": "uint256"
        }
      ],
      "name": "FundsDeposited",
      "type": "event"
    },
    {
      "anonymous": false,
      "inputs": [
        {
          "indexed": true,
          "internalType": "address",
          "name": "previousOwner",
          "type": "address"
        },
        {
          "indexed": true,
          "internalType": "address",
          "name": "newOwner",
          "type": "address"
        }
      ],
      "name": "OwnershipTransferred",
      "type": "event"
    },
    {
      "anonymous": false,
      "inputs": [
        {
          "indexed": false,
          "internalType": "bool",
          "name": "isWin",
          "type": "bool"
        },
        {
          "indexed": false,
          "internalType": "uint256",
          "name": "roll",
          "type": "uint256"
        }
      ],
      "name": "RiggedRollResult",
      "type": "event"
    },
    {
      "inputs": [],
      "name": "depositEther",
      "outputs": [],
      "stateMutability": "payable",
      "type": "function"
    },
    {
      "inputs": [],
      "name": "diceGame",
      "outputs": [
        {
          "internalType": "contract DiceGame",
          "name": "",
          "type": "address"
        }
      ],
      "stateMutability": "view",
      "type": "function"
    },
    {
      "inputs": [],
      "name": "getBalance",
      "outputs": [
        {
          "internalType": "uint256",
          "name": "",
          "type": "uint256"
        }
      ],
      "stateMutability": "view",
      "type": "function"
    },
    {
      "inputs": [],
      "name": "owner",
      "outputs": [
        {
          "internalType": "address",
          "name": "",
          "type": "address"
        }
      ],
      "stateMutability": "view",
      "type": "function"
    },
    {
      "inputs": [],
      "name": "renounceOwnership",
      "outputs": [],
      "stateMutability": "nonpayable",
      "type": "function"
    },
    {
      "inputs": [],
      "name": "riggedRoll",
      "outputs": [],
      "stateMutability": "nonpayable",
      "type": "function"
    },
    {
      "inputs": [
        {
          "internalType": "address",
          "name": "newOwner",
          "type": "address"
        }
      ],
      "name": "transferOwnership",
      "outputs": [],
      "stateMutability": "nonpayable",
      "type": "function"
    },
    {
      "inputs": [
        {
          "internalType": "address payable",
          "name": "_addr",
          "type": "address"
        },
        {
          "internalType": "uint256",
          "name": "_amount",
          "type": "uint256"
        }
      ],
      "name": "withdraw",
      "outputs": [],
      "stateMutability": "nonpayable",
      "type": "function"
    },
    {
      "stateMutability": "payable",
      "type": "receive"
    }
  ],
  "transactionHash": "0x1e1ea778bc858355a85d1981ee85bb193e20315d9cc47805dc0712c7a46d4e58",
  "args": [
    "0x36a9a9782E3950F3279bac8ECba48E2c11983065"
  ],
  "numDeployments": 1,
  "solcInputHash": "ab9e99070552eaf1f59fdaff065e4ba3",
  "bytecode": "0x608060405234801561001057600080fd5b50604051610a00380380610a0083398101604081905261002f916100ad565b6100383361005d565b600180546001600160a01b0319166001600160a01b03929092169190911790556100dd565b600080546001600160a01b038381166001600160a01b0319831681178455604051919092169283917f8be0079c531659141344cd1fd0a4f28419497f9722a3daafe3b4186f6b6457e09190a35050565b6000602082840312156100bf57600080fd5b81516001600160a01b03811681146100d657600080fd5b9392505050565b610914806100ec6000396000f3fe60806040526004361061007f5760003560e01c80638e288fd11161004e5780638e288fd11461010957806398ea5fca14610129578063f2fde38b14610131578063f3fef3a31461015157600080fd5b806312065fe01461008b5780636b5e97f8146100ab578063715018a6146100c25780638da5cb5b146100d757600080fd5b3661008657005b600080fd5b34801561009757600080fd5b506040514781526020015b60405180910390f35b3480156100b757600080fd5b506100c0610171565b005b3480156100ce57600080fd5b506100c0610486565b3480156100e357600080fd5b506000546001600160a01b03165b6040516001600160a01b0390911681526020016100a2565b34801561011557600080fd5b506001546100f1906001600160a01b031681565b6100c061049a565b34801561013d57600080fd5b506100c061014c366004610765565b6104d1565b34801561015d57600080fd5b506100c061016c366004610789565b61054a565b610179610638565b66071afd498d00004710156101d55760405162461bcd60e51b815260206004820152601a60248201527f4e6f7420656e6f7567682062616c616e636520746f20726f6c6c00000000000060448201526064015b60405180910390fd5b6001546040805163057ff68760e51b815290516000926001600160a01b03169163affed0e09160048083019260209291908290030181865afa15801561021f573d6000803e3d6000fd5b505050506040513d601f19601f8201168201806040525081019061024391906107b5565b905060006102526001436107ce565b6001546040805192406020840181905260609290921b6bffffffffffffffffffffffff19169083015260548201849052915060009060740160408051601f198184030181529190528051602090910120905060006102b16010836107f5565b905060068110156103ad576102f7604051806040016040528060018152602001600960f81b8152506040518060600160405280602781526020016108b860279139610692565b600160009054906101000a90046001600160a01b03166001600160a01b0316637d789dee66071afd498d00006040518263ffffffff1660e01b81526004016000604051808303818588803b15801561034e57600080fd5b505af1158015610362573d6000803e3d6000fd5b50506040805160018152602081018690527f9b881fd86036ea655f47dc1fa8376ec9a512fc249533d62e36601b0705104fe094500191506103a09050565b60405180910390a1610480565b6103e8604051806040016040528060018152602001600960f81b8152506040518060600160405280602c815260200161088c602c9139610692565b6040805160008152602081018390527f9b881fd86036ea655f47dc1fa8376ec9a512fc249533d62e36601b0705104fe0910160405180910390a160405162461bcd60e51b815260206004820152602d60248201527f50726564696374656420726f6c6c203e20352c206e6f742063616c6c696e672060448201526c726f6c6c54686544696365282960981b60648201526084016101cc565b50505050565b61048e610638565b61049860006106db565b565b60405134815233907f543ba50a5eec5e6178218e364b1d0f396157b3c8fa278522c2cb7fd99407d4749060200160405180910390a2565b6104d9610638565b6001600160a01b03811661053e5760405162461bcd60e51b815260206004820152602660248201527f4f776e61626c653a206e6577206f776e657220697320746865207a65726f206160448201526564647265737360d01b60648201526084016101cc565b610547816106db565b50565b610552610638565b478111156105995760405162461bcd60e51b8152602060048201526014602482015273496e73756666696369656e742062616c616e636560601b60448201526064016101cc565b6000826001600160a01b03168260405160006040518083038185875af1925050503d80600081146105e6576040519150601f19603f3d011682016040523d82523d6000602084013e6105eb565b606091505b50509050806106335760405162461bcd60e51b81526020600482015260146024820152732330b4b632b2103a379039b2b7321022ba3432b960611b60448201526064016101cc565b505050565b6000546001600160a01b031633146104985760405162461bcd60e51b815260206004820181905260248201527f4f776e61626c653a2063616c6c6572206973206e6f7420746865206f776e657260448201526064016101cc565b6106d782826040516024016106a892919061085d565b60408051601f198184030181529190526020810180516001600160e01b0316634b5c427760e01b17905261072b565b5050565b600080546001600160a01b038381166001600160a01b0319831681178455604051919092169283917f8be0079c531659141344cd1fd0a4f28419497f9722a3daafe3b4186f6b6457e09190a35050565b6105478160006a636f6e736f6c652e6c6f679050600080835160208501845afa505050565b6001600160a01b038116811461054757600080fd5b60006020828403121561077757600080fd5b813561078281610750565b9392505050565b6000806040838503121561079c57600080fd5b82356107a781610750565b946020939093013593505050565b6000602082840312156107c757600080fd5b5051919050565b818103818111156107ef57634e487b7160e01b600052601160045260246000fd5b92915050565b60008261081257634e487b7160e01b600052601260045260246000fd5b500690565b6000815180845260005b8181101561083d57602081850181015186830182015201610821565b506000602082860101526020601f19601f83011685010191505092915050565b6040815260006108706040830185610817565b82810360208401526108828185610817565b9594505050505056fe202020507265646963746564206c6f73732c206e6f742063616c6c696e6720726f6c6c5468654469636528292020205072656469637465642077696e2c2063616c6c696e6720726f6c6c546865446963652829a2646970667358221220dc6c17e45a65137064ca20dbf61425a85cc66e7f06b9b447ef34ede8b4201a0e64736f6c63430008110033",
  "devdoc": {
    "kind": "dev",
    "methods": {
      "owner()": {
        "details": "Returns the address of the current owner."
      },
      "renounceOwnership()": {
        "details": "Leaves the contract without owner. It will not be possible to call `onlyOwner` functions anymore. Can only be called by the current owner. NOTE: Renouncing ownership will leave the contract without an owner, thereby removing any functionality that is only available to the owner."
      },
      "transferOwnership(address)": {
        "details": "Transfers ownership of the contract to a new account (`newOwner`). Can only be called by the current owner."
      }
    },
    "version": 1
  },
  "userdoc": {
    "kind": "user",
    "methods": {},
    "version": 1
  },
  "storageLayout": {
    "storage": [
      {
        "astId": 7,
        "contract": "contracts/RiggedRoll.sol:RiggedRoll",
        "label": "_owner",
        "offset": 0,
        "slot": "0",
        "type": "t_address"
      },
      {
        "astId": 361,
        "contract": "contracts/RiggedRoll.sol:RiggedRoll",
        "label": "diceGame",
        "offset": 0,
        "slot": "1",
        "type": "t_contract(DiceGame)351"
      }
    ],
    "types": {
      "t_address": {
        "encoding": "inplace",
        "label": "address",
        "numberOfBytes": "20"
      },
      "t_contract(DiceGame)351": {
        "encoding": "inplace",
        "label": "contract DiceGame",
        "numberOfBytes": "20"
      }
    }
  }
}