{
  "address": "0x84f6FD5114563685dB69ade7DDc0d7194a297328",
  "abi": [
    {
      "inputs": [
        {
          "internalType": "address",
          "name": "exampleExternalContractAddress",
          "type": "address"
        }
      ],
      "stateMutability": "nonpayable",
      "type": "constructor"
    },
    {
      "anonymous": false,
      "inputs": [
        {
          "indexed": true,
          "internalType": "address",
          "name": "_address",
          "type": "address"
        },
        {
          "indexed": false,
          "internalType": "uint256",
          "name": "_amount",
          "type": "uint256"
        }
      ],
      "name": "Stake",
      "type": "event"
    },
    {
      "inputs": [],
      "name": "THRESHOLD",
      "outputs": [
        {
          "internalType": "uint256",
          "name": "",
          "type": "uint256"
        }
      ],
      "stateMutability": "view",
      "type": "function"
    },
    {
      "inputs": [
        {
          "internalType": "address",
          "name": "",
          "type": "address"
        }
      ],
      "name": "balances",
      "outputs": [
        {
          "internalType": "uint256",
          "name": "",
          "type": "uint256"
        }
      ],
      "stateMutability": "view",
      "type": "function"
    },
    {
      "inputs": [],
      "name": "deadline",
      "outputs": [
        {
          "internalType": "uint256",
          "name": "",
          "type": "uint256"
        }
      ],
      "stateMutability": "view",
      "type": "function"
    },
    {
      "inputs": [],
      "name": "exampleExternalContract",
      "outputs": [
        {
          "internalType": "contract ExampleExternalContract",
          "name": "",
          "type": "address"
        }
      ],
      "stateMutability": "view",
      "type": "function"
    },
    {
      "inputs": [],
      "name": "execute",
      "outputs": [],
      "stateMutability": "nonpayable",
      "type": "function"
    },
    {
      "inputs": [],
      "name": "lastExecute",
      "outputs": [
        {
          "internalType": "uint256",
          "name": "",
          "type": "uint256"
        }
      ],
      "stateMutability": "view",
      "type": "function"
    },
    {
      "inputs": [],
      "name": "openForWithdraw",
      "outputs": [
        {
          "internalType": "bool",
          "name": "",
          "type": "bool"
        }
      ],
      "stateMutability": "view",
      "type": "function"
    },
    {
      "inputs": [],
      "name": "stake",
      "outputs": [],
      "stateMutability": "payable",
      "type": "function"
    },
    {
      "inputs": [],
      "name": "timeLeft",
      "outputs": [
        {
          "internalType": "uint256",
          "name": "",
          "type": "uint256"
        }
      ],
      "stateMutability": "view",
      "type": "function"
    },
    {
      "inputs": [],
      "name": "withdraw",
      "outputs": [],
      "stateMutability": "nonpayable",
      "type": "function"
    },
    {
      "stateMutability": "payable",
      "type": "receive"
    }
  ],
  "transactionHash": "0xa6699403b25d62c512c31593772035fafcb1d0f5876a2fadecbb08b6ca2179cb",
  "args": [
    "0x5322f10846c26ba6eda5B27c37E2cf822F43aE54"
  ],
  "numDeployments": 1,
  "solcInputHash": "6bb978d3a0842690ce793dfec97facd6",
  "bytecode": "0x60806040526003805460ff1916905534801561001a57600080fd5b506040516108d53803806108d583398101604081905261003991610140565b600080546001600160a01b0319166001600160a01b038316179055426004819055610067906203f4806101d2565b6002819055506100b66040518060400160405280601e81526020017f6578616d706c6545787465726e616c436f6e7472616374416464726573730000815250826100bc60201b6104b01760201c565b506101f6565b61010582826040516024016100d292919061016e565b60408051601f198184030181529190526020810180516001600160e01b0390811663319af33360e01b1790915261010916565b5050565b61011c8161011f60201b6104f51760201c565b50565b60006a636f6e736f6c652e6c6f679050600080835160208501845afa505050565b600060208284031215610151578081fd5b81516001600160a01b0381168114610167578182fd5b9392505050565b6040815260008351806040840152815b8181101561019b576020818701810151606086840101520161017e565b818111156101ac5782606083860101525b506001600160a01b0393909316602083015250601f91909101601f191601606001919050565b600082198211156101f157634e487b7160e01b81526011600452602481fd5b500190565b6106d0806102056000396000f3fe6080604052600436106100955760003560e01c80633ccfd60b116100595780633ccfd60b146101325780636146195414610147578063785ffb371461015c5780639876a643146101785780639f75f227146101a257600080fd5b80631300a6d1146100a957806327e235e3146100d157806329dcb0cf146100fe5780633411a081146101145780633a4b66f11461012a57600080fd5b366100a4576100a26101da565b005b600080fd5b3480156100b557600080fd5b506100be61025d565b6040519081526020015b60405180910390f35b3480156100dd57600080fd5b506100be6100ec366004610584565b60016020526000908152604090205481565b34801561010a57600080fd5b506100be60025481565b34801561012057600080fd5b506100be60045481565b6100a26101da565b34801561013e57600080fd5b506100a2610282565b34801561015357600080fd5b506100a26103cd565b34801561016857600080fd5b506100be670de0b6b3a764000081565b34801561018457600080fd5b506003546101929060ff1681565b60405190151581526020016100c8565b3480156101ae57600080fd5b506000546101c2906001600160a01b031681565b6040516001600160a01b0390911681526020016100c8565b33600090815260016020526040812080543492906101f9908490610655565b909155505060405134815233907febedb8b3c678666e7f36970bc8f57abf6d8fa2e828c0da91ea5b75bf68ed101a9060200160405180910390a261025b604051806040016040528060058152602001645374616b6560d81b8152503334610516565b565b600042600254111561027c5742600254610277919061066d565b905090565b50600090565b60035460ff1615156001146102d55760405162461bcd60e51b815260206004820152601460248201527315da5d1a191c985dc81b9bdd08185b1b1bddd95960621b60448201526064015b60405180910390fd5b336000908152600160205260409020548061032b5760405162461bcd60e51b81526020600482015260166024820152754e6f2062616c616e636520746f20776974686472617760501b60448201526064016102cc565b336000818152600160205260408082208290555190919083908381818185875af1925050503d806000811461037c576040519150601f19603f3d011682016040523d82523d6000602084013e610381565b606091505b50509050806103c95760405162461bcd60e51b81526020600482015260146024820152732330b4b632b2103a379039b2b7321022ba3432b960611b60448201526064016102cc565b5050565b6002544210156104155760405162461bcd60e51b8152602060048201526013602482015272111958591b1a5b99481b9bdd081c185cdcd959606a1b60448201526064016102cc565b670de0b6b3a764000047106104a15760008054906101000a90046001600160a01b03166001600160a01b031663522e1177476040518263ffffffff1660e01b81526004016000604051808303818588803b15801561047257600080fd5b505af1158015610486573d6000803e3d6000fd5b50503360009081526001602052604081205550504260045550565b6003805460ff19166001179055565b6103c982826040516024016104c69291906105fd565b60408051601f198184030181529190526020810180516001600160e01b031663319af33360e01b179052610562565b60006a636f6e736f6c652e6c6f679050600080835160208501845afa505050565b61055d83838360405160240161052e93929190610627565b60408051601f198184030181529190526020810180516001600160e01b0316630d26b92560e01b179052610562565b505050565b61056b816104f5565b50565b634e487b7160e01b600052605160045260246000fd5b600060208284031215610595578081fd5b81356001600160a01b03811681146105ab578182fd5b9392505050565b60008151808452815b818110156105d7576020818501810151868301820152016105bb565b818111156105e85782602083870101525b50601f01601f19169290920160200192915050565b60408152600061061060408301856105b2565b905060018060a01b03831660208301529392505050565b60608152600061063a60608301866105b2565b6001600160a01b039490941660208301525060400152919050565b6000821982111561066857610668610684565b500190565b60008282101561067f5761067f610684565b500390565b634e487b7160e01b600052601160045260246000fdfea2646970667358221220ca5ccf262f6cbc18e6886bb59ef021a62b4aa947a0ab5ca939d81e1cdd7be89064736f6c63430008040033",
  "devdoc": {
    "kind": "dev",
    "methods": {},
    "version": 1
  },
  "userdoc": {
    "kind": "user",
    "methods": {},
    "version": 1
  },
  "storageLayout": {
    "storage": [
      {
        "astId": 20,
        "contract": "contracts/Staker.sol:Staker",
        "label": "exampleExternalContract",
        "offset": 0,
        "slot": "0",
        "type": "t_contract(ExampleExternalContract)12"
      },
      {
        "astId": 24,
        "contract": "contracts/Staker.sol:Staker",
        "label": "balances",
        "offset": 0,
        "slot": "1",
        "type": "t_mapping(t_address,t_uint256)"
      },
      {
        "astId": 35,
        "contract": "contracts/Staker.sol:Staker",
        "label": "deadline",
        "offset": 0,
        "slot": "2",
        "type": "t_uint256"
      },
      {
        "astId": 38,
        "contract": "contracts/Staker.sol:Staker",
        "label": "openForWithdraw",
        "offset": 0,
        "slot": "3",
        "type": "t_bool"
      },
      {
        "astId": 40,
        "contract": "contracts/Staker.sol:Staker",
        "label": "lastExecute",
        "offset": 0,
        "slot": "4",
        "type": "t_uint256"
      }
    ],
    "types": {
      "t_address": {
        "encoding": "inplace",
        "label": "address",
        "numberOfBytes": "20"
      },
      "t_bool": {
        "encoding": "inplace",
        "label": "bool",
        "numberOfBytes": "1"
      },
      "t_contract(ExampleExternalContract)12": {
        "encoding": "inplace",
        "label": "contract ExampleExternalContract",
        "numberOfBytes": "20"
      },
      "t_mapping(t_address,t_uint256)": {
        "encoding": "mapping",
        "key": "t_address",
        "label": "mapping(address => uint256)",
        "numberOfBytes": "32",
        "value": "t_uint256"
      },
      "t_uint256": {
        "encoding": "inplace",
        "label": "uint256",
        "numberOfBytes": "32"
      }
    }
  }
}